S0100000414345535F4843552E73726563B9
S11300000C942A000C943C000C943C000C948A023E
S11300100C943C000C943C000C943C000C943C006C
S11300200C943C000C948F000C943C000C943C0009
S11300300C943C000C943C000C943C000C943C004C
S11300400C943C000C943C000C943C000C943C003C
S11300500C943C0011241FBECFE5D8E0DEBFCDBF19
S113006020E0A0E6B0E001C01D92A538B207E1F798
S11300700E949B020C94E0040C9400001ABA8FEFC7
S113008087BB84BB11BA8D9A1092640010926000F1
S11300901092610089E19AE6ADEABEE380936500BF
S11300A090936600A0936700B09368008AEA8093F7
S11300B0630084B784BF8AB78ABF329A3D9A379A5D
S11300C0789489B7846089BF8EB582608EBD8CEDCB
S11300D09BE09DBD8CBDE9E6F0E080E090E0A8ECFB
S11300E0B2EC80839183A283B38384839583A683B4
S11300F0B78380879187A287B38784879587A687EC
S1130100B787808B918BA28BB38B848B958BA68BBB
S1130110B78B808F918FA28FB38F369A08951F92D9
S11301200F920FB60F9211248F939F9392B380E294
S1130130892782BB8CED9BE09DBD8CBD9F918F91E7
S11301400F900FBE0F901F9018958F929F92AF92B1
S1130150BF92CF92DF92EF92FF920F931F93CF93B0
S1130160C1E009E610E001C0CF5F8FEF8C0F823051
S113017009F471C030F4882369F0813009F447C070
S113018001C1843009F4AFC008F489C0853009F492
S1130190CEC0F8C0F801C080D180E280F38020E0B6
S11301A030E048E852E4C701B6010E946E04181614
S11301B07CF0F80184809580A680B78020E030E050
S11301C048E852E4C501B4010E946E04181614F400
S11301D0A898CACF20E030E042E852E4C701B60153
S11301E00E941603882354F020E030E042E852E4F1
S11301F0C501B4010E94160388231CF485B385BB92
S1130200B3CF80916100836080936100ADCFF8012A
S1130210C084D184E284F38420E030E04AEA52E4EA
S1130220C701B6010E94160388231CF485B385BB5D
S11302309BCF20E030E040EB52E4C701B6010E94BE
S11302406E04181614F4AA988FCF8091610084600C
S11302508093610089CFF801C484D584E684F7844F
S113026020E030E04CE852E4C701B6010E941603D6
S113027088231CF485B385BB77CF20E030E042E9C6
S113028052E4C701B6010E946E04181614F4AB9828
S11302906BCF8091610088608093610065CFF80125
S11302A0C088D188E288F38820E030E04AEA52E44A
S11302B0C701B6010E94160388231CF485B385BBCD
S11302C053CF20E030E040EB52E4C701B6010E9476
S11302D06E04181614F4AC9847CF809161008061C5
S11302E08093610041CFF801C488D588E688F788F7
S11302F020E030E04AEA52E4C701B6010E94160346
S113030088231CF485B385BB2FCF20E030E040EB7D
S113031052E4C701B6010E946E04181614F4AD9895
S113032023CF809161008062809361001DCF20E023
S113033030E04CE852E460917D0070917E00809141
S11303407F00909180000E94160388231CF485B3DB
S113035085BB1BC020E030E042E952E4609181009B
S11303607091820080918300909184000E946E04B9
S1130370181614F4AE9809C08091610080648093CB
S1130380610003C0C63008F4EFCECF911F910F91E6
S1130390FF90EF90DF90CF90BF90AF909F908F90A1
S11303A008951F93CF93DF93349B51C084B165B1FB
S11303B010916400C12FD0E0CC0FDD1FCC0FDD1FE6
S11303C0C759DF4F70E0660F771F660F771F82955E
S11303D0869586958370682B80E090E00E94BC032C
S11303E020E030E040E251E40E94730420E030E079
S11303F040E450E40E94AA02688379838A839B8341
S11304001F5F183018F41093640002C01092640047
S113041090916400917081E0982727B19095922380
S113042097B99091640092709827990F27B190958D
S1130430922397B99091640094708927880F880F4C
S113044097B18095892387B90E94A500369ADF91D8
S1130450CF911F9108958F929F92AF92BF92CF92A6
S1130460DF92EF92FF92CF93DF93109262008BB7EB
S113047080628BBF12BE83B783BF83B78D7F83BF78
S113048083B783BF08B600FEFDCF8BB78F7D8BBFCC
S1130490C6B5D7B568B579B580E090E00E94BC03D5
S11304A06B017C016091630080916200681B70E0C5
S11304B080E090E00E94BE032FE134E74FEB5CE361
S11304C00E9473044B015C01BE0180E090E00E9435
S11304D0BC039B01AC01C501B4010E94730420E07C
S11304E030E040EC50E40E941B039B01AC01C701C7
S11304F0B6010E94A9020E948D0379BD68BDDF91F7
S1130500CF91FF90EF90DF90CF90BF90AF909F90EE
S11305108F9008951F920F920FB60F9211248F930C
S1130520809162008F5F809362008F910F900FBE65
S11305300F901F9018950E943E00809160008111D9
S113054003C00E94D101F9CF0E94D1010E942B0265
S1130550F4CF5058BB27AA270E94C1020C9434043C
S11305600E94260438F00E942D0420F039F49F3FA5
S113057019F426F40C9423040EF4E095E7FB0C9490
S11305801D04E92F0E94450458F3BA176207730744
S11305908407950720F079F4A6F50C9467040EF40B
S11305A0E0950B2EBA2FA02D0B01B90190010C017F
S11305B0CA01A0011124FF27591B99F0593F50F497
S11305C0503E68F11A16F040A22F232F342F4427EF
S11305D0585FF3CF469537952795A795F0405395E7
S11305E0C9F77EF41F16BA0B620B730B840BBAF0B7
S11305F09150A1F0FF0FBB1F661F771F881FC2F722
S11306000EC0BA0F621F731F841F48F48795779535
S11306106795B795F7959E3F08F0B0CF9395880FEF
S113062008F09927EE0F9795879508950E94F9038E
S113063008F481E008950E942F030C9434040E946E
S11306402D0458F00E94260440F029F45F3F29F05D
S11306500C941D0451110C9468040C9423040E94FE
S1130660450468F39923B1F3552391F3951B550B76
S1130670BB27AA2762177307840738F09F5F5F4F71
S1130680220F331F441FAA1FA9F335D00E2E3AF0B0
S1130690E0E832D091505040E695001CCAF72BD0C8
S11306A0FE2F29D0660F771F881FBB1F2617370719
S11306B04807AB07B0E809F0BB0B802DBF01FF274B
S11306C093585F4F3AF09E3F510578F00C941D0407
S11306D00C9468045F3FE4F3983ED4F386957795D1
S11306E06795B795F7959F5FC9F7880F911D969504
S11306F0879597F90895E1E0660F771F881FBB1F60
S1130700621773078407BA0720F0621B730B840B0C
S1130710BA0BEE1F88F7E09508950E944D0488F007
S11307209F5798F0B92F9927B751B0F0E1F0660FB1
S1130730771F881F991F1AF0BA95C9F714C0B130F2
S113074091F00E946704B1E008950C946704672F48
S1130750782F8827B85F39F0B93FCCF38695779521
S11307606795B395D9F73EF490958095709561950A
S11307707F4F8F4F9F4F0895E89409C097FB3EF435
S113078090958095709561957F4F8F4F9F4F9923DA
S1130790A9F0F92F96E9BB279395F6958795779558
S11307A06795B795F111F8CFFAF4BB0F11F460FF18
S11307B01BC06F5F7F4F8F4F9F4F16C0882311F070
S11307C096E911C0772321F09EE8872F762F05C084
S11307D0662371F096E8862F70E060E02AF09A951F
S11307E0660F771F881FDAF7880F9695879597F914
S11307F00895990F0008550FAA0BE0E8FEEF1616AE
S11308001706E807F907C0F012161306E407F50700
S113081098F0621B730B840B950B39F40A2661F074
S1130820232B242B252B21F408950A2609F4A14017
S1130830A6958FEF811D811D089597F99F6780E824
S113084070E060E008959FEF80EC089500240A941E
S11308501616170618060906089500240A94121697
S11308601306140605060895092E0394000C11F4CA
S1130870882352F0BB0F40F4BF2B11F460FF04C077
S11308806F5F7F4F8F4F9F4F089557FD9058440FD0
S1130890551F59F05F3F71F04795880F97FB991FDB
S11308A061F09F3F79F08795089512161306140698
S11308B0551FF2CF4695F1DF08C016161706180625
S11308C0991FF1CF86957105610508940895E89400
S11308D0BB2766277727CB0197F908950E94F90370
S11308E008F48FEF08950E9486040C9434040E9447
S11308F0260438F00E942D0420F0952311F00C9466
S11309001D040C94230411240C9468040E944504CF
S113091070F3959FC1F3950F50E0551F629FF0014E
S1130920729FBB27F00DB11D639FAA27F00DB11D67
S1130930AA1F649F6627B00DA11D661F829F2227F0
S1130940B00DA11D621F739FB00DA11D621F839F77
S1130950A00D611D221F749F3327A00D611D231F4D
S1130960849F600D211D822F762F6A2F11249F579B
S113097050409AF0F1F088234AF0EE0FFF1FBB1F9E
S1130980661F771F881F91505040A9F79E3F51055D
S113099080F00C941D040C9468045F3FE4F3983ECB
S11309A0D4F3869577956795B795F795E7959F5F07
S11309B0C1F7FE2B880F911D9695879597F9089599
S10709C0F894FFCFD5
S9030000FC
