:100000000C942A000C943C000C943C000C94E502E7
:100010000C943C000C943C000C943C000C943C0070
:100020000C943C000C94C4000C943C000C943C00D8
:100030000C943C000C943C000C943C000C943C0050
:100040000C943C000C943C000C943C000C943C0040
:100050000C943C0011241FBECFE5D8E0DEBFCDBF1D
:1000600020E0A0E6B0E001C01D92A338B207E1F79E
:100070000E94F6020C9438050C94000080E88ABBBC
:1000800088ED87BB8FEF84BB81BB10926600109216
:1000900061001092630089E19AE6ADEABEE38093C5
:1000A000670090936800A0936900B0936A00609124
:1000B000650070E080E090E00E9416042DED3DEDBB
:1000C0004DED5CE30E94CB040E94E5036093600069
:1000D0008AEA8093650084B784BF8AB78ABF329A60
:1000E0003D9A379A789489B7846089BF8EB58260CB
:1000F0008EBD8CED9BE09DBD8CBDEBE6F0E080E01D
:1001000090E0A8ECB2EC80839183A283B3838483D4
:100110009583A683B78380879187A287B3878487D7
:100120009587A687B787808B918BA28BB38B848BA7
:10013000958BA68BB78B808F918FA28FB38F12BEBA
:1001400083B783BF83B783BF83B783BF83B783BFBF
:100150008FE78CBF83B7846083BF14BC85B585BD32
:1001600085B585BD85B585BD85B585BD89EC83BD66
:1001700085B5846085BD82B382BB82B382BB82B306
:1001800082BB82B382BB08951F920F920FB60F926B
:1001900011248F939F93809162008F5F8093620000
:1001A00080FF04C092B380E2892782BB98B382E0CB
:1001B000892788BB8CED9BE09DBD8CBD9F918F9165
:1001C0000F900FBE0F901F901895CF92DF92EF9275
:1001D000FF920F931F93CF93C1E00BE610E001C095
:1001E000CF5F8FEF8C0F823009F456C028F488233C
:1001F00061F0813069F104C1843009F4A4C008F4CD
:100200007EC0853009F4D2C0FBC0F801C080D18027
:10021000E280F38020E030E042E852E4C701B6011A
:100220000E94C60418163CF480916300816080939C
:1002300063009098D5CF20E030E042E852E4C70157
:10024000B6010E946E0388235CF682B382BBC8CFDE
:10025000F801C084D184E284F38420E030E040EBF4
:1002600052E4C701B6010E946E0388231CF482B3D6
:1002700082BBB6CF20E030E040EB52E4C701B601CC
:100280000E94C60418160CF0ABCFA99880916300A9
:10029000826080936300A4CFF801C484D584E6848F
:1002A000F78420E030E042E952E4C701B6010E9441
:1002B0006E03882354F480916100811103C083B7D9
:1002C00083BF8ECF88B388BB8BCF20E030E042E97C
:1002D00052E4C701B6010E94C60418160CF080CF84
:1002E00080916100811109C083B78B7F83BF8091AA
:1002F000630084608093630073CFC39871CFF8016B
:10030000C088D188E288F38820E030E04AEA52E4ED
:10031000C701B6010E946E0388231CF482B382BB1E
:100320005FCF20E030E04AEA52E4C701B6010E9404
:10033000C60418160CF054CF929880916300886020
:10034000809363004DCFF801C488D588E688F7888C
:1003500020E030E040EB52E4C701B6010E946E039A
:10036000882354F480916100811103C085B585BD57
:1003700037CF82B382BB34CF20E030E040EB52E491
:10038000C701B6010E94C60418160CF029CF80914F
:100390006100811109C085B58B7F85BD80916300A7
:1003A0008061809363001CCF97981ACF20E030E0E3
:1003B0004CE852E460917F00709180008091810050
:1003C000909182000E946E0388231CF482B382BB4A
:1003D0001AC020E030E04CE852E460918300709154
:1003E000840080918500909186000E94C6041816B2
:1003F00054F493988091630080628093630003C0FB
:10040000C63008F4EDCECF911F910F91FF90EF9081
:10041000DF90CF9008950F931F93CF93DF93CBE698
:10042000D0E010E001E0369A349BFECF84B165B194
:1004300070E0660F771F660F771F82958695869509
:100440008370682B80E090E00E94140420E030E08C
:10045000A9010E94CB042DEC3CEC40E553E40E9442
:10046000CB0423E333E34FE952E40E940103699391
:10047000799389939993812F8170802797B1809583
:10048000892387B9812F82708027880F97B1809543
:10049000892387B9812F84708027880F880F97B1AF
:1004A0008095892387B986B186B91F5F163009F018
:1004B000BACF0E94E50083E294EF0197F1F700C004
:1004C0000000DF91CF911F910F9108958F929F921D
:1004D000AF92BF92CF92DF92EF92FF920F931F9352
:1004E000CF93109264008BB780628BBF12BE83B72C
:1004F00083BF83B78D7F83BF83B783BF08B600FEFA
:10050000FDCF8BB78F7D8BBF8091640081110DC0B3
:1005100082E0809361008EB58E7F8EBD82B382BBF8
:1005200082B382BB88B388BB44C0C0916500C81B3E
:1005300006B517B568B579B580E090E00E9414045F
:100540006B017C016C2F70E080E090E00E9416044B
:1005500024EE33EF4FE25CE30E94CB044B015C01DD
:10056000B80180E090E00E9414049B01AC01C50139
:10057000B4010E94CB0420E030E040EC50E40E9443
:1005800073039B01AC01C701B6010E9401030E94E5
:10059000E50379BD68BD80916000C81710F4969A94
:1005A00004C092B380E4892782BB92B380E289279A
:1005B00082BBCF911F910F91FF90EF90DF90CF9072
:1005C000BF90AF909F908F9008951F920F920FB69B
:1005D0000F9211248F93809164008F5F8093640049
:1005E0008F910F900FBE0F901F9018950E943E00A4
:1005F0000E940B02809161008130D1F70E94660257
:10060000F7CF5058BB27AA270E9419030C948C04DB
:100610000E947E0438F00E94850420F039F49F3F48
:1006200019F426F40C947B040EF4E095E7FB0C948B
:100630007504E92F0E949D0458F3BA1762077307E7
:100640008407950720F079F4A6F50C94BF040EF406
:10065000E0950B2EBA2FA02D0B01B90190010C01D2
:10066000CA01A0011124FF27591B99F0593F50F4EA
:10067000503E68F11A16F040A22F232F342F442742
:10068000585FF3CF469537952795A795F04053953A
:10069000C9F77EF41F16BA0B620B730B840BBAF00A
:1006A0009150A1F0FF0FBB1F661F771F881FC2F775
:1006B0000EC0BA0F621F731F841F48F48795779589
:1006C0006795B795F7959E3F08F0B0CF9395880F43
:1006D00008F09927EE0F9795879508950E94510489
:1006E00008F481E008950E9487030C948C040E9412
:1006F000850458F00E947E0440F029F45F3F29F001
:100700000C94750451110C94C0040C947B040E9449
:100710009D0468F39923B1F3552391F3951B550B71
:10072000BB27AA2762177307840738F09F5F5F4FC4
:10073000220F331F441FAA1FA9F335D00E2E3AF003
:10074000E0E832D091505040E695001CCAF72BD01B
:10075000FE2F29D0660F771F881FBB1F261737076C
:100760004807AB07B0E809F0BB0B802DBF01FF279E
:1007700093585F4F3AF09E3F510578F00C94750402
:100780000C94C0045F3FE4F3983ED4F386957795CC
:100790006795B795F7959F5FC9F7880F911D969557
:1007A000879597F90895E1E0660F771F881FBB1FB3
:1007B000621773078407BA0720F0621B730B840B60
:1007C000BA0BEE1F88F7E09508950E94A50488F003
:1007D0009F5798F0B92F9927B751B0F0E1F0660F05
:1007E000771F881F991F1AF0BA95C9F714C0B13046
:1007F00091F00E94BF04B1E008950C94BF04672FEC
:10080000782F8827B85F39F0B93FCCF38695779574
:100810006795B395D9F73EF490958095709561955D
:100820007F4F8F4F9F4F0895E89409C097FB3EF488
:1008300090958095709561957F4F8F4F9F4F99232D
:10084000A9F0F92F96E9BB279395F69587957795AB
:100850006795B795F111F8CFFAF4BB0F11F460FF6B
:100860001BC06F5F7F4F8F4F9F4F16C0882311F0C3
:1008700096E911C0772321F09EE8872F762F05C0D7
:10088000662371F096E8862F70E060E02AF09A9572
:10089000660F771F881FDAF7880F9695879597F967
:1008A0000895990F0008550FAA0BE0E8FEEF161601
:1008B0001706E807F907C0F012161306E407F50754
:1008C00098F0621B730B840B950B39F40A2661F0C8
:1008D000232B242B252B21F408950A2609F4A1406B
:1008E000A6958FEF811D811D089597F99F6780E878
:1008F00070E060E008959FEF80EC089500240A9472
:100900001616170618060906089500240A941216EA
:100910001306140605060895092E0394000C11F41D
:10092000882352F0BB0F40F4BF2B11F460FF04C0CA
:100930006F5F7F4F8F4F9F4F089557FD9058440F23
:10094000551F59F05F3F71F04795880F97FB991F2E
:1009500061F09F3F79F087950895121613061406EB
:10096000551FF2CF4695F1DF08C016161706180678
:10097000991FF1CF86957105610508940895E89453
:10098000BB2766277727CB0197F908950E9451046A
:1009900008F48FEF08950E94DE040C948C040E94EA
:1009A0007E0438F00E94850420F0952311F00C9409
:1009B00075040C947B0411240C94C0040E949D04C3
:1009C00070F3959FC1F3950F50E0551F629FF001A2
:1009D000729FBB27F00DB11D639FAA27F00DB11DBB
:1009E000AA1F649F6627B00DA11D661F829F222744
:1009F000B00DA11D621F739FB00DA11D621F839FCB
:100A0000A00D611D221F749F3327A00D611D231FA0
:100A1000849F600D211D822F762F6A2F11249F57EE
:100A200050409AF0F1F088234AF0EE0FFF1FBB1FF1
:100A3000661F771F881F91505040A9F79E3F5105B0
:100A400080F00C9475040C94C0045F3FE4F3983E6E
:100A5000D4F3869577956795B795F795E7959F5F5A
:100A6000C1F7FE2B880F911D9695879597F90895EC
:040A7000F894FFCF28
:00000001FF
