S0100000414345535F4843552E73726563B9
S11300000C942A000C943C000C943C000C9459046D
S11300100C943C000C946A040C943C000C943C003A
S11300200C943C000C943E000C943C000C943C005A
S11300300C943C000C943C000C943C000C943C004C
S11300400C943C000C943C000C943C000C943C003C
S11300500C943C0011241FBECFE5D8E0DEBFCDBF19
S113006020E0A0E6B0E001C01D92AA38B207E1F793
S11300700E94D9040C9422070C9400001F920F9242
S11300800FB60F9211248F939F93809166008F5F18
S11300908093660080FF04C092B380E2892782BB0C
S11300A098B382E0892788BB8CED9BE09DBD8CBD15
S11300B09F918F910F900FBE0F901F90189544231E
S11300C059F050E002C0440F551F6A95E2F7FC0155
S11300D02081422B4083089521E030E002C0220FAA
S11300E0331F6A95E2F72095FC0130812323208396
S11300F0089580E88ABB8AED87BB8FEF84BB81BB00
S1130100109261001092670089E19AE6ADEABEE3BD
S113011080936E0090936F00A0937000B093710071
S113012080E690EFA3E5BCE380936A0090936B00B4
S1130130A0936C00B0936D008DE88093690083E018
S11301408093600041E066E084E590E00E945F00F7
S113015041E065E08AE590E00E945F0086B184603A
S113016086B986B1806886B987B1806487B9789486
S113017089B7846089BF8EB582608EBD8CED9BE0AB
S11301809DBD8CBDE2E7F0E080E090E0A8ECB2EC2D
S113019080839183A283B38384839583A683B78367
S11301A080879187A287B38784879587A687B78737
S11301B0808B918BA28BB38B848B958BA68BB78B07
S11301C0808F918FA28FB38F12BE41E063E083E5ED
S11301D090E00E945F0041E066E083E590E00E94C9
S11301E05F0041E065E083E590E00E945F0041E04C
S11301F064E083E590E00E945F008FE78CBF83B7E3
S1130200846083BF14BC41E063E085E490E00E9415
S11302105F0041E066E085E490E00E945F0041E019
S113022065E085E490E00E945F0041E064E085E4DD
S113023090E00E945F0089EC83BD85B5846085BD34
S113024041E060E082E390E00E945F0041E061E011
S113025082E390E00E945F0041E062E082E390E08C
S11302600E945F0041E063E082E390E00E945F004F
S11302700895CF92DF92EF92FF920F931F93CF9343
S1130280DF93109268008BB780628BBF12BE41E08F
S113029062E088E590E00E945F0041E062E083E56F
S11302A090E00E945F0040E061E083E590E00E94FE
S11302B05F0041E060E083E590E00E945F0008B6E3
S11302C000FEFDCF40E065E08BE590E00E945F001A
S11302D06091680061111BC082E08093610040E07E
S11302E08EE490E00E945F0041E066E082E390E0EB
S11302F00E945F008CE384BD41E065E082E390E00E
S11303000E945F001092660086E085BD67C0C091C0
S11303106900C61BDC2F70E080E090E00E94FE05BF
S1130320C0906A00D0906B00E0906C00F0906D007B
S1130330A70196010E94B50627E53BE748E45EE382
S11303400E94E40421E732EE43EC5EE30E9456058A
S113035060936200709363008093640090936500DF
S11303606C2F0C2E000C770B880B990B0E94000647
S11303709B01AC01C701B6010E94B5066B017C016B
S113038066B577B580E090E00E94FE059B01AC0164
S1130390C701B6010E94B50620E030E040EC50E40D
S11303A00E94560508B519B50E94CF05061B170B08
S11303B019BD08BDCC230CF4D1958D2FDD0F990BFD
S11303C02091600030E02817390724F082B380645C
S11303D082BB04C092B380E4892782BBDF91CF91B2
S11303E01F910F91FF90EF90DF90CF900895482FC9
S11303F067E08BE390E00E945F000895CF93DF9362
S113040081E08093610041E061E088E390E00E9434
S11304105F0080E00E94F70140E062E089E590E03F
S11304200E945F008FB582608FBD8EB588618EBDDE
S11304308FB580638FBD80E29EE497BD86BDC6B54F
S1130440D7B566B577B580E090E00E94FE052091AF
S11304506E0030916F0040917000509171000E94C5
S1130460B5060E94C805C61BD70BD9BDC8BD41E05F
S113047060E08EE490E00E945F0013BE40E062E022
S113048083E590E00E945F0040E061E083E590E056
S11304900E945F0040E060E083E590E00E945F001E
S11304A084B7806484BF41E065E082E390E00E9409
S11304B05F0089B7806489BF8BE084BD10926600B9
S11304C087E085BDDF91CF910895CF92DF92EF92BF
S11304D0FF92CF93C0E05DC1C23009F46FC028F42D
S11304E0CC2361F0C130D1F153C1C43009F4DCC074
S11304F008F4AAC0C53009F41DC14AC1C0907200F5
S1130500D0907300E0907400F090750020E030E02B
S113051040E251E4C701B6010E94B006181664F423
S11305208091670081608093670040E060E082E32F
S113053090E00E945F002CC120E030E040E251E4F2
S1130540C701B6010E94510588230CF021C141E086
S113055060E082E390E00E945F001AC1C0907A00DC
S1130560D0907B00E0907C00F0907D0020E030E0B3
S113057040E251E4C701B6010E94510588233CF4CE
S113058041E061E082E390E00E945F0001C120E06D
S113059030E040E251E4C701B6010E94B0061816EB
S11305A00CF0F6C040E061E082E390E00E945F005E
S11305B080916700826080936700EAC0C0907E00EB
S11305C0D0907F00E0908000F090810020E030E047
S11305D040E251E4C701B6010E945105882394F416
S11305E080916100811107C041E062E083E590E001
S11305F00E945F00CDC041E063E088E390E00E9488
S11306005F00C6C020E030E040E251E4C701B6011B
S11306100E94B00618160CF0BBC0809161008111D5
S11306200CC040E062E083E590E00E945F008091AE
S11306306700846080936700ABC040E063E088E3B8
S113064090E00E945F00A4C0C0908200D09083001C
S1130650E0908400F090850020E030E040E251E436
S1130660C701B6010E94510588233CF441E062E0D1
S113067082E390E00E945F008BC020E030E040E223
S113068051E4C701B6010E94B00618160CF080C0F0
S113069040E062E082E390E00E945F0080916700A6
S11306A088608093670074C0C0908600D0908700F3
S11306B0E0908800F090890020E030E040E251E4CE
S11306C0C701B6010E945105882394F4809161000A
S11306D0811107C041E062E085E490E00E945F0080
S11306E057C041E067E082E390E00E945F0050C0A1
S11306F020E030E040E251E4C701B6010E94B006B8
S113070018160CF045C08091610081110CC040E0C6
S113071062E085E490E00E945F0080916700806160
S11307208093670035C040E067E082E390E00E9478
S11307305F002EC0C0908600D0908700E0908800B3
S1130740F090890020E030E040E251E4C701B601B6
S11307500E94510588233CF441E063E082E390E089
S11307600E945F0015C020E030E040E251E4C70180
S1130770B6010E94B00618165CF440E063E082E320
S113078090E00E945F008091670080628093670020
S1130790CF5FC63008F4A0CE809167008F3331F468
S11307A080916100811102C00E94FE01CF91FF90EF
S11307B0EF90DF90CF9008951F93CF93DF9340E0A5
S11307C060E087E290E00E945F0040E061E087E241
S11307D090E00E945F0040E062E087E290E00E94C7
S11307E05F0010E053C086B1806486B9349BFECFAD
S11307F0349BFECF84B165B170E0762F6627682BF9
S113080080E090E00E94FE0520E030E040EA5BE3F7
S11308100E94B5062DEC3CEC40E553E40E94B5067D
S113082023E333E34FE952E40E94E404C12FD0E010
S1130830FE01EE0FFF1FEE0FFF1FEE58FF4F608308
S11308407183828393831F5F412F417060E087E24D
S113085090E00E945F002196AE0155954795417046
S113086061E087E290E00E945F00D595C795D59539
S1130870C7954C2F417062E087E290E00E945F00D0
S113088041E064E086E290E00E945F00163008F4E4
S1130890AACF0E94650280916100813031F083E229
S11308A094EF0197F1F700C00000DF91CF911F9101
S11308B008951F920F920FB60F9211248F93809177
S11308C068008F5F809368008F910F900FBE0F9028
S11308D01F9018951F920F920FB60F9211242F9309
S11308E03F934F935F936F937F938F939F93AF93B4
S11308F0BF93EF93FF9380916100813029F580913C
S11309006600823071F440E065E082E390E00E948A
S11309105F00809166008F5F809366008BE084BDEA
S113092037C0833059F441E065E082E390E00E94EF
S11309305F00109266008BE084BD2AC08F5F8093B5
S113094066008BE084BD24C080916600813071F420
S113095040E065E082E390E00E945F0080916600E1
S11309608F5F809366008CE384BD12C0833159F499
S113097041E065E082E390E00E945F00109266002F
S11309808CE384BD05C08F5F809366008CE384BDD7
S1130990FF91EF91BF91AF919F918F917F916F9153
S11309A05F914F913F912F910F900FBE0F901F9029
S11309B018950E9479000E94DC03809161008130C7
S11309C0D1F70E943901F7CF5058BB27AA270E94BC
S11309D0FC040C9476060E94680638F00E946F06A8
S11309E020F039F49F3F19F426F40C9465060EF4B4
S11309F0E095E7FB0C945F06E92F0E94870658F305
S1130A00BA17620773078407950720F079F4A6F5EF
S1130A100C94A9060EF4E0950B2EBA2FA02D0B0111
S1130A20B90190010C01CA01A0011124FF27591B2F
S1130A3099F0593F50F4503E68F11A16F040A22F35
S1130A40232F342F4427585FF3CF469537952795A6
S1130A50A795F0405395C9F77EF41F16BA0B620BA5
S1130A60730B840BBAF09150A1F0FF0FBB1F661FEC
S1130A70771F881FC2F70EC0BA0F621F731F841F2F
S1130A8048F4879577956795B795F7959E3F08F055
S1130A90B0CF9395880F08F09927EE0F9795879517
S1130AA008950E943B0608F481E008950E946A05B7
S1130AB00C9476060E946F0658F00E94680640F077
S1130AC029F45F3F29F00C945F0651110C94AA0697
S1130AD00C9465060E94870668F39923B1F35523A5
S1130AE091F3951B550BBB27AA276217730784073D
S1130AF038F09F5F5F4F220F331F441FAA1FA9F3D3
S1130B0035D00E2E3AF0E0E832D091505040E695C0
S1130B10001CCAF72BD0FE2F29D0660F771F881F21
S1130B20BB1F261737074807AB07B0E809F0BB0B14
S1130B30802DBF01FF2793585F4F3AF09E3F510528
S1130B4078F00C945F060C94AA065F3FE4F3983E99
S1130B50D4F3869577956795B795F7959F5FC9F711
S1130B60880F911D9695879597F90895E1E0660F92
S1130B70771F881FBB1F621773078407BA0720F00B
S1130B80621B730B840BBA0BEE1F88F7E095089574
S1130B900E94CF056894B1110C94AA0608950E948E
S1130BA08F0688F09F5798F0B92F9927B751B0F066
S1130BB0E1F0660F771F881F991F1AF0BA95C9F7DD
S1130BC014C0B13091F00E94A906B1E008950C94CC
S1130BD0A906672F782F8827B85F39F0B93FCCF37F
S1130BE0869577956795B395D9F73EF4909580955A
S1130BF0709561957F4F8F4F9F4F0895E89409C07A
S1130C0097FB3EF490958095709561957F4F8F4F3B
S1130C109F4F9923A9F0F92F96E9BB279395F69551
S1130C20879577956795B795F111F8CFFAF4BB0FCF
S1130C3011F460FF1BC06F5F7F4F8F4F9F4F16C033
S1130C40882311F096E911C0772321F09EE8872FBD
S1130C50762F05C0662371F096E8862F70E060E079
S1130C602AF09A95660F771F881FDAF7880F9695F2
S1130C70879597F90895990F0008550FAA0BE0E896
S1130C80FEEF16161706E807F907C0F0121613064A
S1130C90E407F50798F0621B730B840B950B39F48A
S1130CA00A2661F0232B242B252B21F408950A26F0
S1130CB009F4A140A6958FEF811D811D089597F930
S1130CC09F6780E870E060E008959FEF80EC0895EE
S1130CD000240A9416161706180609060895002417
S1130CE00A9412161306140605060895092E039491
S1130CF0000C11F4882352F0BB0F40F4BF2B11F405
S1130D0060FF04C06F5F7F4F8F4F9F4F089557FD63
S1130D109058440F551F59F05F3F71F04795880F65
S1130D2097FB991F61F09F3F79F0879508951216FC
S1130D3013061406551FF2CF4695F1DF08C01616A8
S1130D4017061806991FF1CF869571056105089459
S1130D500895E894BB2766277727CB0197F9089570
S1130D600E943B0608F48FEF08950E94C8060C9475
S1130D7076060E94680638F00E946F0620F09523DC
S1130D8011F00C945F060C94650611240C94AA06C9
S1130D900E94870670F3959FC1F3950F50E0551F8D
S1130DA0629FF001729FBB27F00DB11D639FAA27BC
S1130DB0F00DB11DAA1F649F6627B00DA11D661F0B
S1130DC0829F2227B00DA11D621F739FB00DA11D2C
S1130DD0621F839FA00D611D221F749F3327A00DE6
S1130DE0611D231F849F600D211D822F762F6A2F82
S1130DF011249F5750409AF0F1F088234AF0EE0FE7
S1130E00FF1FBB1F661F771F881F91505040A9F713
S1130E109E3F510580F00C945F060C94AA065F3F38
S1130E20E4F3983ED4F3869577956795B795F7954F
S1130E30E7959F5FC1F7FE2B880F911D96958795C7
S10B0E4097F90895F894FFCF1F
S9030000FC
