S0100000414345535F4843552E73726563B9
S11300000C942A000C943C000C943C000C940903BE
S11300100C943C000C943C000C943C000C943C006C
S11300200C943C000C94C5000C943C000C943C00D3
S11300300C943C000C943C000C943C000C943C004C
S11300400C943C000C943C000C943C000C943C003C
S11300500C943C0011241FBECFE5D8E0DEBFCDBF19
S113006020E0A0E6B0E001C01D92A738B207E1F796
S11300700E941A030C945C050C94000080E88ABB6F
S113008088ED87BB8FEF84BB81BB10926600109212
S113009061001092630089E19AE6ADEABEE38093C1
S11300A0670090936800A0936900B0936A00609120
S11300B0650070E080E090E00E943A042DED3DED93
S11300C04DED5CE30E94EF040E940904609360001C
S11300D08AEA8093650084B784BF8AB78ABF329A5C
S11300E03D9A379A789489B7846089BF8EB58260C7
S11300F08EBD8CED9BE09DBD8CBDEBE6F0E080E019
S113010090E0A8ECB2EC80839183A283B3838483D0
S11301109583A683B78380879187A287B3878487D3
S11301209587A687B787808B918BA28BB38B848BA3
S1130130958BA68BB78B808F918FA28FB38F12BEB6
S113014083B783BF83B783BF83B783BF83B783BFBB
S11301508FE78CBF83B7846083BF14BC85B585BD2E
S113016085B585BD85B585BD85B585BD89EC83BD62
S113017085B5846085BD82B382BB82B382BB82B302
S113018082BB82B382BB369A08951F920F920FB638
S11301900F9211248F939F93809162008F5F8093BD
S11301A0620080FF04C092B380E2892782BB98B3C7
S11301B082E0892788BB8CED9BE09DBD8CBD9F911F
S11301C08F910F900FBE0F901F9018958F929F9252
S11301D0AF92BF92CF92DF92EF92FF920F931F9351
S11301E0CF93C1E00BE610E001C0CF5F8FEF8C0F1F
S11301F0823009F471C030F4882369F0813009F445
S113020047C01FC1843009F4BEC008F498C08530CB
S113021009F4ECC016C1F801C080D180E280F380FB
S113022020E030E048E852E4C701B6010E94EA0445
S113023018167CF0F80184809580A680B78020E0B1
S113024030E048E852E4C501B4010E94EA041816FB
S113025014F49098CACF20E030E042E852E4C70199
S1130260B6010E949203882354F020E030E042E873
S113027052E4C501B4010E94920388231CF482B3A2
S113028082BBB3CF80916300836080936300ADCF62
S1130290F801C084D184E284F38420E030E04AEAA7
S11302A052E4C701B6010E94920388231CF482B36E
S11302B082BB9BCF20E030E040EB52E4C701B601A3
S11302C00E94EA04181614F4A9988FCF8091630051
S11302D084608093630089CFF801C484D584E68464
S11302E0F78420E030E04CE852E4C701B6010E94F4
S11302F09203882354F480916100811103C083B771
S113030083BF73CF88B388BB70CF20E030E042E96D
S113031052E4C701B6010E94EA04181654F480910D
S11303206100811104C083B78B7F83BF5ECFC39804
S11303305CCF8091630088608093630056CFF8019E
S1130340C088D188E288F38820E030E04AEA52E4A9
S1130350C701B6010E94920388231CF482B382BBB6
S113036044CF20E030E040EB52E4C701B6010E94E4
S1130370EA04181614F4929838CF809163008061CF
S11303808093630032CFF801C488D588E688F78863
S113039020E030E04AEA52E4C701B6010E94920329
S11303A0882354F480916100811103C085B585BD13
S11303B01CCF82B382BB19CF20E030E040EB52E483
S11303C0C701B6010E94EA04181654F48091610032
S11303D0811104C085B58B7F85BD07CF979805CF64
S11303E080916300806280936300FFCE20E030E060
S11303F04CE852E460917F0070918000809181000C
S1130400909182000E94920388231CF482B382BBE1
S11304101BC020E030E042E952E460918300709117
S1130420840080918500909186000E94EA04181649
S113043014F4939809C080916300806480936300EE
S113044003C0C63008F4D1CECF911F910F91FF9015
S1130450EF90DF90CF90BF90AF909F908F900895D2
S11304601F93CF93DF93349B51C084B165B1109136
S11304706600C12FD0E0CC0FDD1FCC0FDD1FC559A6
S1130480DF4F70E0660F771F660F771F82958695A2
S113049086958370682B80E090E00E94380420E009
S11304A030E040E251E40E94EF0420E030E040E418
S11304B050E40E942603688379838A839B831F5FA9
S11304C0183018F41093660002C0109266009091E0
S11304D06600917081E0982727B19095922397B98F
S11304E09091660092709827990F27B19095922366
S11304F097B99091660094708927880F880F97B1F7
S11305008095892387B90E94E600369ADF91CF91BE
S11305101F9108958F929F92AF92BF92CF92DF92D4
S1130520EF92FF920F931F93CF93109264008BB7B7
S113053080628BBF12BE83B783BF83B78D7F83BFB7
S113054083B783BF08B600FEFDCF8BB78F7D8BBF0B
S11305508091640081110DC082E0809361008EB5AA
S11305608E7F8EBD82B382BB82B382BB88B388BBCD
S113057044C0C0916500C81B06B517B568B579B508
S113058080E090E00E9438046B017C016C2F70E0E5
S113059080E090E00E943A0424EE33EF4FE25CE303
S11305A00E94EF044B015C01B80180E090E00E94DE
S11305B038049B01AC01C501B4010E94EF0420E0A2
S11305C030E040EC50E40E9497039B01AC01C7016A
S11305D0B6010E9425030E94090479BD68BD80917B
S11305E06000C81710F4969A04C092B380E4892777
S11305F082BB92B380E2892782BBCF911F910F9176
S1130600FF90EF90DF90CF90BF90AF909F908F902E
S113061008951F920F920FB60F9211248F93809119
S113062064008F5F809364008F910F900FBE0F90D2
S11306301F9018950E943E000E9430028091610034
S11306408130D1F70E948A02F7CF5058BB27AA27DE
S11306500E943D030C94B0040E94A20438F00E944E
S1130660A90420F039F49F3F19F426F40C949F0454
S11306700EF4E095E7FB0C949904E92F0E94C10461
S113068058F3BA17620773078407950720F079F4C3
S1130690A6F50C94E3040EF4E0950B2EBA2FA02DCE
S11306A00B01B90190010C01CA01A0011124FF271B
S11306B0591B99F0593F50F4503E68F11A16F04016
S11306C0A22F232F342F4427585FF3CF4695379515
S11306D02795A795F0405395C9F77EF41F16BA0BDA
S11306E0620B730B840BBAF09150A1F0FF0FBB1F88
S11306F0661F771F881FC2F70EC0BA0F621F731FD1
S1130700841F48F4879577956795B795F7959E3F2D
S113071008F0B0CF9395880F08F09927EE0F9795BE
S1130720879508950E94750408F481E008950E9455
S1130730AB030C94B0040E94A90458F00E94A204D4
S113074040F029F45F3F29F00C94990451110C9462
S1130750E4040C949F040E94C10468F39923B1F348
S1130760552391F3951B550BBB27AA2762177307D3
S1130770840738F09F5F5F4F220F331F441FAA1F67
S1130780A9F335D00E2E3AF0E0E832D09150504023
S1130790E695001CCAF72BD0FE2F29D0660F771FD1
S11307A0881FBB1F261737074807AB07B0E809F0B7
S11307B0BB0B802DBF01FF2793585F4F3AF09E3F3C
S11307C0510578F00C9499040C94E4045F3FE4F32D
S11307D0983ED4F3869577956795B795F7959F5F7F
S11307E0C9F7880F911D9695879597F90895E1E0CB
S11307F0660F771F881FBB1F621773078407BA072A
S113080020F0621B730B840BBA0BEE1F88F7E09584
S113081008950E94C90488F09F5798F0B92F99272A
S1130820B751B0F0E1F0660F771F881F991F1AF0D7
S1130830BA95C9F714C0B13091F00E94E304B1E055
S113084008950C94E304672F782F8827B85F39F054
S1130850B93FCCF3869577956795B395D9F73EF470
S113086090958095709561957F4F8F4F9F4F089518
S1130870E89409C097FB3EF4909580957095619536
S11308807F4F8F4F9F4F9923A9F0F92F96E9BB27EC
S11308909395F695879577956795B795F111F8CF68
S11308A0FAF4BB0F11F460FF1BC06F5F7F4F8F4FD3
S11308B09F4F16C0882311F096E911C0772321F0C9
S11308C09EE8872F762F05C0662371F096E8862F61
S11308D070E060E02AF09A95660F771F881FDAF7B8
S11308E0880F9695879597F90895990F0008550FE5
S11308F0AA0BE0E8FEEF16161706E807F907C0F0A2
S113090012161306E407F50798F0621B730B840BA9
S1130910950B39F40A2661F0232B242B252B21F483
S113092008950A2609F4A140A6958FEF811D811D23
S1130930089597F99F6780E870E060E008959FEF5D
S113094080EC089500240A94161617061806090662
S1130950089500240A941216130614060506089531
S1130960092E0394000C11F4882352F0BB0F40F4B9
S1130970BF2B11F460FF04C06F5F7F4F8F4F9F4FF9
S1130980089557FD9058440F551F59F05F3F71F07B
S11309904795880F97FB991F61F09F3F79F08795E2
S11309A00895121613061406551FF2CF4695F1DF6B
S11309B008C0161617061806991FF1CF86957105FB
S11309C0610508940895E894BB2766277727CB012F
S11309D097F908950E94750408F48FEF08950E9412
S11309E002050C94B0040E94A20438F00E94A904E9
S11309F020F0952311F00C9499040C949F04112475
S1130A000C94E4040E94C10470F3959FC1F3950F04
S1130A1050E0551F629FF001729FBB27F00DB11D7E
S1130A20639FAA27F00DB11DAA1F649F6627B00D0E
S1130A30A11D661F829F2227B00DA11D621F739FF7
S1130A40B00DA11D621F839FA00D611D221F749F05
S1130A503327A00D611D231F849F600D211D822F4C
S1130A60762F6A2F11249F5750409AF0F1F0882373
S1130A704AF0EE0FFF1FBB1F661F771F881F9150A0
S1130A805040A9F79E3F510580F00C9499040C94B2
S1130A90E4045F3FE4F3983ED4F386957795679535
S1130AA0B795F795E7959F5FC1F7FE2B880F911DCA
S10F0AB09695879597F90895F894FFCF68
S9030000FC
