S0100000414345535F4843552E73726563B9
S11300000C942A000C943C000C943C000C943A058B
S11300100C943C000C944B050C943C000C943C0058
S11300200C943C000C943E000C943C000C943C005A
S11300300C943C000C943C000C943C000C943C004C
S11300400C943C000C943C000C943C000C943C003C
S11300500C943C0011241FBECFE5D8E0DEBFCDBF19
S113006021E0A0E6B0E001C01D92A835B207E1F797
S11300700E94BA050C9417080C9400001F920F926A
S11300800FB60F9211248F939F93809166008F5F18
S11300908093660080FF04C092B380E2892782BB0C
S11300A098B382E0892788BB8CED9BE09DBD8CBD15
S11300B09F918F910F900FBE0F901F90189544231E
S11300C059F050E002C0440F551F6A95E2F7FC0155
S11300D02081422B4083089521E030E002C0220FAA
S11300E0331F6A95E2F72095FC0130812323208396
S11300F0089580E88ABB8AED87BB8FEF84BB81BB00
S113010010926100109267008DEC9CECACE0BFE3B0
S113011080933C0190933D01A0933E01B0933F0135
S113012080E690EFA3E5BCE380933601909337011A
S1130130A0933801B09339018DE88093310183E0B5
S11301408093600041E066E084E590E00E945F00F7
S113015041E065E08AE590E00E945F0086B184603A
S113016086B986B1806886B987B1806487B9789486
S113017089B7846089BF8EB582608EBD8CED9BE0AB
S11301809DBD8CBDE0E4F1E080E090E0A8ECB2EC31
S113019080839183A283B38384839583A683B78367
S11301A080879187A287B38784879587A687B78737
S11301B0808B918BA28BB38B848B958BA68BB78B07
S11301C0808F918FA28FB38F12BE41E063E083E5ED
S11301D090E00E945F0041E066E083E590E00E94C9
S11301E05F0041E065E083E590E00E945F0041E04C
S11301F064E083E590E00E945F008FE78CBF83B7E3
S1130200846083BF14BC41E063E085E490E00E9415
S11302105F0041E066E085E490E00E945F0041E019
S113022065E085E490E00E945F0041E064E085E4DD
S113023090E00E945F008CEC83BD85B5846085BD31
S113024041E060E082E390E00E945F0041E061E011
S113025082E390E00E945F0041E062E082E390E08C
S11302600E945F0041E063E082E390E00E945F004F
S1130270109235011092340187E08093320110927C
S11302803B010895CF92DF92EF92FF920F931F9359
S1130290CF93DF93109290008BB780628BBF12BE16
S11302A041E062E088E590E00E945F0041E062E0A6
S11302B083E590E00E945F0040E061E083E590E028
S11302C00E945F0041E060E083E590E00E945F00EF
S11302D008B600FEFDCF40E065E08BE590E00E94AB
S11302E05F00C0913301C150C0933301109190005D
S11302F0D0913101D11B0D2F612F70E080E090E08F
S11303000E94F306C0903601D0903701E090380186
S1130310F0903901A70196010E94AA0721E732EE65
S113032043EC5EE30E944B066093620070936300AB
S113033080936400909365002C2F30E0F901EE0F58
S1130340FF1FEE0FFF1FEF56FF4F60837183828301
S11303509383F901E859FF4F108380913A01882370
S113036021F0815080933A01A5C0C1115EC040E0E4
S113037060E08EE490E00E945F0040E063E08EE481
S113038090E00E945F0040E064E08EE490E00E9410
S11303905F0040E065E08FE490E00E945F0040E091
S11303A064E08FE490E00E945F0040E064E082E358
S11303B090E00E945F0041E066E082E390E00E94EA
S11303C05F008CE384BD41E065E082E390E00E943D
S11303D05F001092660086E085BD40E060E082E345
S11303E090E00E945F0040E061E082E390E00E94C0
S11303F05F0040E062E082E390E00E945F0040E042
S113040063E082E390E00E945F0040E067E082E303
S113041090E00E945F0040E063E088E390E00E9487
S11304205F0082E08093610045C06D2F0D2E000CAB
S1130430770B880B990B0E94F5069B01AC01C70151
S1130440B6010E94AA076B017C0166B577B580E00E
S113045090E00E94F3069B01AC01C701B6010E9423
S1130460AA0724EA30E74DEC50E40E944B06E8B4B6
S1130470F9B420E030E040E450E40E944B060E94CE
S1130480C406E61AF70AF9BCE8BCDD2314F40D2F00
S11304900195802F000F990B2091600030E0281700
S11304A0390724F082B3806482BB04C092B380E431
S11304B0892782BBDF91CF911F910F91FF90EF901D
S11304C0DF90CF900895482F67E08BE390E00E947F
S11304D05F000895CF93DF9381E08093610041E052
S11304E061E088E390E00E945F0087E2809333013B
S11304F080E00E94630240E062E089E590E00E94AF
S11305005F0040E061E08EE490E00E945F008FB500
S113051082608FBD8EB588618EBD8FB580638FBDBF
S113052088EE93E097BD86BDC6B5D7B566B577B5F9
S113053080E090E00E94F30620913C0130913D015F
S113054040913E0150913F010E94AA070E94BD06BE
S1130550C61BD70BD9BDC8BD41E060E08EE490E076
S11305600E945F0085E080933A0113BE40E062E0A0
S113057083E590E00E945F0040E061E083E590E065
S11305800E945F0040E060E083E590E00E945F002D
S113059084B7806484BF41E065E082E390E00E9418
S11305A05F0089B7806489BF8BE084BD10926600C8
S11305B087E085BDDF91CF910895CF92DF92EF92CE
S11305C0FF92CF93C0E0B2C1C23009F46FC028F4E7
S11305D0CC2361F0C130D1F1A8C1C43009F40AC1FF
S11305E008F4D8C0C53009F472C19FC1C09040015D
S11305F0D0904101E0904201F090430120E030E0CE
S113060040E251E4C701B6010E94A507181664F43C
S11306108091670081608093670040E060E082E33E
S113062090E00E945F0081C120E030E040E251E4AC
S1130630C701B6010E94460688230CF076C141E04A
S113064060E082E390E00E945F006FC1C0904401CB
S1130650D0904501E0904601F090470120E030E061
S113066040E251E4C701B6010E94460688233CF4E7
S113067041E061E082E390E00E945F0056C120E027
S113068030E040E251E4C701B6010E94A507181604
S11306900CF04BC140E061E082E390E00E945F0017
S11306A0809167008260809367003FC1C0904801D9
S11306B0D0904901E0904A01F0904B0120E030E0F5
S11306C040E251E4C701B6010E944606882374F54E
S11306D080916100811113C041E065E083E590E001
S11306E00E945F0041E064E083E590E00E945F00C7
S11306F041E062E083E590E00E945F0016C1823031
S113070009F013C190913B0180913201981307C005
S113071041E063E088E390E00E945F0006C140E0AE
S113072063E088E390E00E945F00FFC020E030E0D7
S113073040E251E4C701B6010E94A50718160CF067
S1130740F4C0809161008130F1F040E062E083E523
S113075090E00E945F0040E065E083E590E00E9445
S11307605F0040E064E083E590E00E945F0040E0C9
S113077063E088E390E00E945F00809167008460FA
S113078080936700D2C040E063E088E390E00E9479
S11307905F00CBC0C0904C01D0904D01E0904E0161
S11307A0F0904F0120E030E040E251E4C701B6018F
S11307B00E94460688233CF441E062E082E390E034
S11307C00E945F00B2C020E030E040E251E4C70183
S11307D0B6010E94A50718160CF0A7C040E062E01D
S11307E082E390E00E945F008091670088608093BC
S11307F067009BC0C0905001D0905101E09052011D
S1130800F090530120E030E040EA52E4C701B60121
S11308100E944606882374F580916100811113C0FB
S113082041E065E085E490E00E945F0041E064E01F
S113083085E490E00E945F0041E062E085E490E09E
S11308400E945F0072C0823009F06FC090913B013A
S113085080913201981307C041E067E082E390E0A1
S11308600E945F0062C040E067E082E390E00E9483
S11308705F005BC020E030E040EA52E4C701B6010B
S11308800E94A50718160CF050C0809161008111D8
S11308904CC040E062E085E490E00E945F0040E0EC
S11308A065E085E490E00E945F0040E064E085E458
S11308B090E00E945F0040E067E082E390E00E94E5
S11308C05F00809167008061809367002EC0C090B4
S11308D05401D0905501E0905601F090570120E06A
S11308E030E040E251E4C701B6010E944606882385
S11308F03CF441E063E082E390E00E945F0015C0B5
S113090020E030E040E251E4C701B6010E94A507AF
S113091018165CF440E063E082E390E00E945F001C
S113092080916700806280936700CF5FC63008F4CF
S11309304BCE809167008F3331F480916100811137
S113094002C00E946A02CF91FF90EF90DF90CF9097
S113095008950F931F93CF93DF9340E060E087E205
S113096090E00E945F0040E061E087E290E00E9436
S11309705F0040E062E087E290E00E945F0010E0E8
S113098065C086B1806486B9349BFECF349BFECFAC
S113099084B165B170E0762F6627682B80E090E023
S11309A00E94F30620E030E040EA5BE30E94AA07DD
S11309B02DEC3CEC40E553E40E94AA0723E333E327
S11309C04FE952E40E94D905C12FD0E0FE01EE0F99
S11309D0FF1FEE0FFF1FE05CFE4F60837183828375
S11309E09383143031F440E061E087E290E00E94A8
S11309F05F0001E0010F402F417060E087E290E06A
S1130A000E945F002196AE0155954795417061E0C3
S1130A1087E290E00E945F00D595C795D595C7956C
S1130A204C2F417062E087E290E00E945F00133037
S1130A3031F441E061E087E290E00E945F0041E030
S1130A4064E086E290E00E945F00102F163008F404
S1130A5098CF0E94DD0280916100813031F083E201
S1130A6094EF0197F1F700C00000DF91CF911F913F
S1130A700F9108951F920F920FB60F9211248F9326
S1130A80809190008F5F809390008F910F900FBEA4
S1130A900F901F9018951F920F920FB60F9211246A
S1130AA02F933F934F935F936F937F938F939F9372
S1130AB0AF93BF93EF93FF9380916100813029F549
S1130AC080916600823071F440E065E082E390E05A
S1130AD00E945F00809166008F5F809366008BE0C8
S1130AE084BD37C0833059F441E065E082E390E08F
S1130AF00E945F00109266008BE084BD2AC08F5F65
S1130B00809366008BE084BD24C0809166008130B0
S1130B1071F440E065E082E390E00E945F00809120
S1130B2066008F5F809366008CE384BD12C08331BE
S1130B3059F441E065E082E390E00E945F00109286
S1130B4066008CE384BD05C08F5F809366008CE3F0
S1130B5084BDFF91EF91BF91AF919F918F917F9150
S1130B606F915F914F913F912F910F900FBE0F9016
S1130B701F9018950E94790080913401909135015D
S1130B80019690933501809334010E94A9048091C9
S1130B906100813011F40E94420180913B018F5F1A
S1130BA080933B0190913201981730F710923B01EA
S1130BB0E3CF5058BB27AA270E94F1050C946B077A
S1130BC00E945D0738F00E94640720F039F49F3FCB
S1130BD019F426F40C945A070EF4E095E7FB0C94F0
S1130BE05407E92F0E947C0758F3BA17620773076A
S1130BF08407950720F079F4A6F50C949E070EF46B
S1130C00E0950B2EBA2FA02D0B01B90190010C0118
S1130C10CA01A0011124FF27591B99F0593F50F430
S1130C20503E68F11A16F040A22F232F342F442788
S1130C30585FF3CF469537952795A795F040539580
S1130C40C9F77EF41F16BA0B620B730B840BBAF050
S1130C509150A1F0FF0FBB1F661F771F881FC2F7BB
S1130C600EC0BA0F621F731F841F48F487957795CF
S1130C706795B795F7959E3F08F0B0CF9395880F89
S1130C8008F09927EE0F9795879508950E943007ED
S1130C9008F481E008950E945F060C946B070E949B
S1130CA0640758F00E945D0740F029F45F3F29F083
S1130CB00C94540751110C949F070C945A070E94EA
S1130CC07C0768F39923B1F3552391F3951B550BD6
S1130CD0BB27AA2762177307840738F09F5F5F4F0B
S1130CE0220F331F441FAA1FA9F335D00E2E3AF04A
S1130CF0E0E832D091505040E695001CCAF72BD062
S1130D00FE2F29D0660F771F881FBB1F26173707B2
S1130D104807AB07B0E809F0BB0B802DBF01FF27E4
S1130D2093585F4F3AF09E3F510578F00C94540766
S1130D300C949F075F3FE4F3983ED4F38695779530
S1130D406795B795F7959F5FC9F7880F911D96959D
S1130D50879597F90895E1E0660F771F881FBB1FF9
S1130D60621773078407BA0720F0621B730B840BA6
S1130D70BA0BEE1F88F7E09508950E94C4066894A4
S1130D80B1110C949F0708950E94840788F09F571F
S1130D9098F0B92F9927B751B0F0E1F0660F771F9B
S1130DA0881F991F1AF0BA95C9F714C0B13091F091
S1130DB00E949E07B1E008950C949E07672F782F38
S1130DC08827B85F39F0B93FCCF386957795679556
S1130DD0B395D9F73EF490958095709561957F4FC2
S1130DE08F4F9F4F0895E89409C097FB3EF4909568
S1130DF08095709561957F4F8F4F9F4F9923A9F0F0
S1130E00F92F96E9BB279395F6958795779567957E
S1130E10B795F111F8CFFAF4BB0F11F460FF1BC0C2
S1130E206F5F7F4F8F4F9F4F16C0882311F096E955
S1130E3011C0772321F09EE8872F762F05C0662303
S1130E4071F096E8862F70E060E02AF09A95660FBC
S1130E50771F881FDAF7880F9695879597F9089575
S1130E60990F0008550FAA0BE0E8FEEF16161706B7
S1130E70E807F907C0F012161306E407F50798F01F
S1130E80621B730B840B950B39F40A2661F0232B38
S1130E90242B252B21F408950A2609F4A140A695B4
S1130EA08FEF811D811D089597F99F6780E870E099
S1130EB060E008959FEF80EC089500240A941616CC
S1130EC0170618060906089500240A941216130634
S1130ED0140605060895092E0394000C11F48823C2
S1130EE052F0BB0F40F4BF2B11F460FF04C06F5FDE
S1130EF07F4F8F4F9F4F089557FD9058440F551FB4
S1130F0059F05F3F71F04795880F97FB991F61F087
S1130F109F3F79F087950895121613061406551FFE
S1130F20F2CF4695F1DF08C0161617061806991F6A
S1130F30F1CF86957105610508940895E894BB275F
S1130F4066277727CB0197F908950E94300708F4A4
S1130F508FEF08950E94BD070C946B070E945D07F4
S1130F6038F00E94640720F0952311F00C94540784
S1130F700C945A0711240C949F070E947C0770F369
S1130F80959FC1F3950F50E0551F629FF001729F2A
S1130F90BB27F00DB11D639FAA27F00DB11DAA1F39
S1130FA0649F6627B00DA11D661F829F2227B00D86
S1130FB0A11D621F739FB00DA11D621F839FA00D11
S1130FC0611D221F749F3327A00D611D231F849F61
S1130FD0600D211D822F762F6A2F11249F575040B8
S1130FE09AF0F1F088234AF0EE0FFF1FBB1F661F33
S1130FF0771F881F91505040A9F79E3F510580F0FC
S11310000C9454070C949F075F3FE4F3983ED4F389
S1131010869577956795B795F795E7959F5FC1F79F
S1131020FE2B880F911D9695879597F90895F8944E
S1051030FFCFEC
S9030000FC
