S0100000414345535F4843552E73726563B9
S11300000C942A000C943C000C943C000C943C008E
S11300100C943C000C943C000C943C000C943C006C
S11300200C943C000C9440000C943C000C943C0058
S11300300C943C000C943C000C943C000C943C004C
S11300400C943C000C943C000C943C000C943C003C
S11300500C943C0011241FBECFE5D8E0DEBFCDBF19
S113006020E0A0E6B0E001C01D92A036B207E1F79F
S11300700E944A000C944D000C940000789408955A
S11300801F920F920FB60F9211240F900FBE0F9074
S11100901F9018950E943E00FFCFF894FFCFFA
S9030000FC
