S0100000414345535F4843552E73726563B9
S11300000C942A000C943C000C943C000C94320494
S11300100C943C000C943C000C943C000C943C006C
S11300200C943C000C943E000C943C000C943C005A
S11300300C943C000C943C000C943C000C943C004C
S11300400C943C000C943C000C943C000C943C003C
S11300500C943C0011241FBECFE5D8E0DEBFCDBF19
S113006020E0A0E6B0E001C01D92A738B207E1F796
S11300700E9443040C948C060C9400001F920F926F
S11300800FB60F9211248F939F93809162008F5F1C
S11300908093620080FF04C092B380E2892782BB10
S11300A098B382E0892788BB8CED9BE09DBD8CBD15
S11300B09F918F910F900FBE0F901F90189544231E
S11300C059F050E002C0440F551F6A95E2F7FC0155
S11300D02081422B4083089521E030E002C0220FAA
S11300E0331F6A95E2F72095FC0130812323208396
S11300F0089580E88ABB8AED87BB8FEF84BB81BB00
S113010010926600109261001092630089E19AE6F1
S1130110ADEABEE38093670090936800A093690002
S1130120B0936A008AEA8093650084E0809360005B
S113013041E066E084E590E00E945F0041E065E014
S11301408AE590E00E945F0080E090E0AAE8B2E4D3
S11301508093830090938400A0938500B0938600DD
S113016086B1846086B986B1806886B987B18064B7
S113017087B9789489B7846089BF8EB582608EBD53
S11301808CED9BE09DBD8CBDEBE6F0E080E090E063
S1130190A8ECB2EC80839183A283B3838483958398
S11301A0A683B78380879187A287B387848795873F
S11301B0A687B787808B918BA28BB38B848B958B0F
S11301C0A68BB78B808F918FA28FB38F12BE41E025
S11301D063E083E590E00E945F0041E066E083E530
S11301E090E00E945F0041E065E083E590E00E94BA
S11301F05F0041E064E083E590E00E945F008FE7E8
S11302008CBF83B7846083BF14BC41E063E085E4A2
S113021090E00E945F0041E066E085E490E00E9487
S11302205F0041E065E085E490E00E945F0041E00A
S113023064E085E490E00E945F0089EC83BD85B5AD
S1130240846085BD41E060E082E390E00E945F004D
S113025041E061E082E390E00E945F0041E062E0FF
S113026082E390E00E945F0041E063E082E390E07B
S11302700E945F000895CF92DF92EF92FF920F9356
S11302801F93CF93DF9381E0809364008BB78062E8
S11302908BBF12BE41E062E088E590E00E945F00FF
S11302A041E062E083E590E00E945F0040E061E0AD
S11302B083E590E00E945F0041E060E083E590E028
S11302C00E945F0008B600FEFDCF40E065E08BE5CC
S11302D090E00E945F008091640081111CC082E064
S11302E08093610040E060E08EE490E00E945F0053
S11302F041E065E082E390E00E945F0041E066E057
S113030082E390E00E945F0041E061E088E390E0D6
S11303100E945F0046C0C0916500C81BDC2F6C2F93
S11303200C2E000C770B880B990B0E946A0524EEA7
S113033033EF4FE25CE30E941F066B017C0166B55C
S113034077B580E090E00E9468059B01AC01C7018D
S1130350B6010E941F0620E030E040EC50E40E9409
S1130360C00408B519B50E943905061B170B19BD41
S113037008BDCC230CF4D1958D2FDD0F990B209162
S1130380600030E02817390724F082B3806482BB10
S113039004C092B380E4892782BB92B380E28927A8
S11303A082BBDF91CF911F910F91FF90EF90DF906F
S11303B0CF900895482F67E08BE390E00E945F00A0
S11303C00895CF93DF9381E08093610041E061E081
S11303D088E390E00E945F0080E00E94DA0140E040
S11303E062E089E590E00E945F008FB582608FBD76
S11303F08EB588618EBD8FB580638FBD80E29EE42B
S113040097BD86BDC6B5D7B566B577B580E090E033
S11304100E9468052091670030916800409169004E
S113042050916A000E941F060E943205C61BD70B1A
S1130430D9BDC8BD41E060E08EE490E00E945F0059
S113044040E062E083E590E00E945F0040E061E00C
S113045083E590E00E945F0040E060E083E590E087
S11304600E945F0084B7806484BFDF91CF910895B8
S1130470CF92DF92EF92FF92CF93C0E061C1C2307E
S113048009F46FC028F4CC2361F0C130D1F157C115
S1130490C43009F4DCC008F4AAC0C53009F41DC195
S11304A04EC1C0906B00D0906C00E0906D00F09055
S11304B06E0020E030E040E251E4C701B6010E9442
S11304C01A06181664F480916300816080936300B7
S11304D040E060E082E390E00E945F0030C120E0F1
S11304E030E040E251E4C701B6010E94BB04882316
S11304F00CF025C141E060E082E390E00E945F00DF
S11305001EC1C0907300D0907400E0907500F0900C
S1130510760020E030E040E251E4C701B6010E94D9
S1130520BB0488233CF441E061E082E390E00E9454
S11305305F0005C120E030E040E251E4C701B601AC
S11305400E941A0618160CF0FAC040E061E082E33B
S113055090E00E945F00809163008260809363005A
S1130560EEC0C0907700D0907800E0907900F090D1
S11305707A0020E030E040E251E4C701B6010E9475
S1130580BB04882394F480916100811107C041E089
S113059062E083E590E00E945F00D1C041E063E047
S11305A088E390E00E945F00CAC020E030E040E2AF
S11305B051E4C701B6010E941A0618160CF0BFC018
S11305C08091610081110CC040E062E083E590E01D
S11305D00E945F0080916300846080936300AFC0D9
S11305E040E063E088E390E00E945F00A8C0C09010
S11305F07B00D0907C00E0907D00F0907E0020E0B5
S113060030E040E251E4C701B6010E94BB048823F4
S11306103CF441E062E082E390E00E945F008FC01E
S113062020E030E040E251E4C701B6010E941A061E
S113063018160CF084C040E062E082E390E00E946F
S11306405F008091630088608093630078C0C090ED
S11306507F00D0908000E0908100F090820020E044
S113066030E040E251E4C701B6010E94BB04882394
S113067094F480916100811107C041E062E085E457
S113068090E00E945F005BC041E067E082E390E09D
S11306900E945F0054C020E030E040E251E4C70112
S11306A0B6010E941A0618160CF049C08091610028
S11306B081110CC040E062E085E490E00E945F009C
S11306C08091630080618093630039C040E067E0FB
S11306D082E390E00E945F0032C060917F007091DD
S11306E08000809181009091820020E030E040E21F
S11306F051E40E94BB0488233CF441E063E082E3BC
S113070090E00E945F001BC06091830070918400A0
S1130710809185009091860020E030E040E251E431
S11307200E941A0618165CF440E063E082E390E04D
S11307300E945F0080916300806280936300CF5FBA
S1130740C63008F49CCE809163008F3331F48091DD
S11307506100811102C00E94E101CF91FF90EF90EE
S1130760DF90CF9008951F93CF93DF9340E060E034
S113077087E290E00E945F0040E061E087E290E061
S11307800E945F0040E062E087E290E00E945F0028
S113079010E059C086B1806486B9349BFECF84B121
S11307A065B170E0762F6627682B80E090E00E94A8
S11307B0680520E030E040EA5BE30E941F062DEC70
S11307C03CEC40E553E40E941F0623E333E34FE986
S11307D052E40E944E0460938300709384008093DB
S11307E0850090938600C12FD0E0FE01EE0FFF1F1D
S11307F0EE0FFF1FE559FF4F60837183828393835C
S11308001F5F412F417060E087E290E00E945F002B
S11308102196AE0155954795417061E087E290E0DD
S11308200E945F00D595C795D595C7954C2F41700B
S113083062E087E290E00E945F0041E064E086E2CB
S113084090E00E945F00163008F4A4CF0E943802A2
S113085083E294EF0197F1F700C00000DF91CF919C
S11308601F9108951F920F920FB60F9211248F9328
S1130870809164008F5F809364008F910F900FBE0E
S11308800F901F9018950E9479000E94B3038091E5
S113089061008130D1F70E943B01F7CF5058BB274C
S11308A0AA270E9466040C94E0050E94D20538F041
S11308B00E94D90520F039F49F3F19F426F40C94D2
S11308C0CF050EF4E095E7FB0C94C905E92F0E94CF
S11308D0F10558F3BA17620773078407950720F0E8
S11308E079F4A6F50C9413060EF4E0950B2EBA2FAA
S11308F0A02D0B01B90190010C01CA01A001112422
S1130900FF27591B99F0593F50F4503E68F11A16CD
S1130910F040A22F232F342F4427585FF3CF46955E
S113092037952795A795F0405395C9F77EF41F1680
S1130930BA0B620B730B840BBAF09150A1F0FF0F4A
S1130940BB1F661F771F881FC2F70EC0BA0F621F36
S1130950731F841F48F4879577956795B795F79526
S11309609E3F08F0B0CF9395880F08F09927EE0FBB
S11309709795879508950E94A50508F481E0089548
S11309800E94D4040C94E0050E94D90558F00E94FA
S1130990D20540F029F45F3F29F00C94C9055111A8
S11309A00C9414060C94CF050E94F10568F3992366
S11309B0B1F3552391F3951B550BBB27AA27621757
S11309C07307840738F09F5F5F4F220F331F441F64
S11309D0AA1FA9F335D00E2E3AF0E0E832D0915098
S11309E05040E695001CCAF72BD0FE2F29D0660F85
S11309F0771F881FBB1F261737074807AB07B0E8C8
S1130A0009F0BB0B802DBF01FF2793585F4F3AF0CD
S1130A109E3F510578F00C94C9050C9414065F3F71
S1130A20E4F3983ED4F3869577956795B795F79553
S1130A309F5FC9F7880F911D9695879597F908953B
S1130A40E1E0660F771F881FBB1F621773078407D7
S1130A50BA0720F0621B730B840BBA0BEE1F88F7E6
S1130A60E09508950E9439056894B1110C94140618
S1130A7008950E94F90588F09F5798F0B92F992797
S1130A80B751B0F0E1F0660F771F881F991F1AF075
S1130A90BA95C9F714C0B13091F00E941306B1E0C1
S1130AA008950C941306672F782F8827B85F39F0C0
S1130AB0B93FCCF3869577956795B395D9F73EF40E
S1130AC090958095709561957F4F8F4F9F4F0895B6
S1130AD0E89409C097FB3EF49095809570956195D4
S1130AE07F4F8F4F9F4F9923A9F0F92F96E9BB278A
S1130AF09395F695879577956795B795F111F8CF06
S1130B00FAF4BB0F11F460FF1BC06F5F7F4F8F4F70
S1130B109F4F16C0882311F096E911C0772321F066
S1130B209EE8872F762F05C0662371F096E8862FFE
S1130B3070E060E02AF09A95660F771F881FDAF755
S1130B40880F9695879597F90895990F0008550F82
S1130B50AA0BE0E8FEEF16161706E807F907C0F03F
S1130B6012161306E407F50798F0621B730B840B47
S1130B70950B39F40A2661F0232B242B252B21F421
S1130B8008950A2609F4A140A6958FEF811D811DC1
S1130B90089597F99F6780E870E060E008959FEFFB
S1130BA080EC089500240A94161617061806090600
S1130BB0089500240A9412161306140605060895CF
S1130BC0092E0394000C11F4882352F0BB0F40F457
S1130BD0BF2B11F460FF04C06F5F7F4F8F4F9F4F97
S1130BE0089557FD9058440F551F59F05F3F71F019
S1130BF04795880F97FB991F61F09F3F79F0879580
S1130C000895121613061406551FF2CF4695F1DF08
S1130C1008C0161617061806991FF1CF8695710598
S1130C20610508940895E894BB2766277727CB01CC
S1130C3097F908950E94A50508F48FEF08950E947E
S1130C4032060C94E0050E94D20538F00E94D905C2
S1130C5020F0952311F00C94C9050C94CF051124B0
S1130C600C9414060E94F10570F3959FC1F3950F3F
S1130C7050E0551F629FF001729FBB27F00DB11D1C
S1130C80639FAA27F00DB11DAA1F649F6627B00DAC
S1130C90A11D661F829F2227B00DA11D621F739F95
S1130CA0B00DA11D621F839FA00D611D221F749FA3
S1130CB03327A00D611D231F849F600D211D822FEA
S1130CC0762F6A2F11249F5750409AF0F1F0882311
S1130CD04AF0EE0FFF1FBB1F661F771F881F91503E
S1130CE05040A9F79E3F510580F00C94C9050C941F
S1130CF014065F3FE4F3983ED4F3869577956795A1
S1130D00B795F795E7959F5FC1F7FE2B880F911D67
S10F0D109695879597F90895F894FFCF05
S9030000FC
